:100000000C9446000C9465000C9465000C946500FB
:100010000C9465000C9465000C9465000C946500CC
:100020000C9465000C9465000C9465000C946500BC
:100030000C9465000C94DE000C9465000C94650033
:100040000C9465000C9465000C9465000C9465009C
:100050000C9465000C9465000C9465000C9465008C
:100060000C9465000C9465000C9465000C9465007C
:100070000C9465000C9465000C9465000C9465006C
:100080000C9465000C9465000C94650011241FBE4F
:10009000CFEFD0E4DEBFCDBF11E0A0E0B1E0EAEEEB
:1000A000F3E000E00BBF02C007900D92A631B1074C
:1000B000D9F721E0A6E1B1E001C01D92AE31B2074F
:1000C000E1F70E94D4010C94F3010C940000CF934B
:1000D000DF9300D00F92CDB7DEB789837B836A832D
:1000E00089818A3031F48A819B81BC018DE00E9434
:1000F000670080EC90E0FC018081882F90E08072A6
:100100009927892BB1F386EC90E02981FC012083AB
:1001100080E090E00F900F900F90DF91CF910895C5
:10012000CF93DF93CDB7DEB781E890E02BE0FC0101
:10013000208388E890E02DE730E0FC0131832083C4
:100140008FE690E022E0FC01208384E890E0FC014F
:10015000118210828091110190911201A0911301DE
:10016000B09114018093180190931901A0931A0182
:10017000B0931B018FE590E0FC0120818FE590E0BA
:100180002068FC0120830000DF91CF910895CF9378
:10019000DF93CDB7DEB781E890E0FC01108200006C
:1001A000DF91CF910895CF93DF93CDB7DEB781E094
:1001B000809317010000DF91CF9108951F920F9255
:1001C0000FB60F9211240BB60F922F933F934F93BC
:1001D0005F936F937F938F939F93AF93BF93EF93AF
:1001E000FF93CF93DF93CDB7DEB780911801909145
:1001F0001901A0911A01B0911B010197A109B10940
:100200008093180190931901A0931A01B0931B01D8
:100210008091180190911901A0911A01B0911B01D0
:10022000892B8A2B8B2B91F40E94D3008091110192
:1002300090911201A0911301B091140180931801C3
:1002400090931901A0931A01B0931B010000DF9154
:10025000CF91FF91EF91BF91AF919F918F917F913E
:100260006F915F914F913F912F910F900BBE0F9027
:100270000FBE0F901F901895CF93DF9300D000D042
:10028000CDB7DEB769837A838B839C8389819A811A
:10029000AB81BC818093110190931201A093130153
:1002A000B09314018091110190911201A09113015A
:1002B000B09114018093180190931901A0931A0131
:1002C000B0931B0100000F900F900F900F90DF91E3
:1002D000CF910895CF93DF93CDB7DEB780911C0106
:1002E00090911D0182309105B1F083309105D0F4D9
:1002F000009719F0019741F015C081E090E09093CC
:100300001D0180931C010FC082E090E090931D01BD
:1003100080931C0108C082E090E090931D018093BF
:100320001C0101C0000080911C0190911D018230D0
:100330009105D1F08330910580F5009781F1019707
:1003400009F02BC080911601282F30E085E290E063
:10035000225F3E4FF9012081FC012083809116012C
:100360008F5F809316011CC080911601282F30E00A
:1003700085E290E0225F3E4FF9012081FC0120835D
:1003800080911601823019F41092160109C08091F3
:1003900016018F5F8093160103C0000001C00000AA
:1003A0000000DF91CF910895CF93DF93CDB7DEB7F3
:1003B00084E290E02FEFFC01208385E290E0FC01D5
:1003C000108268EE73E080E090E00E943C010E94A1
:1003D00090000E946A010000809117018823E1F3D8
:0A03E00010921701F6CFF894FFCF3A
:1003EA000000000200000000670000000000010297
:0603FA00040100000000F8
:00000001FF
