:100000000C9446000C9465000C9465000C946500FB
:100010000C9465000C9465000C9465000C946500CC
:100020000C9465000C9465000C9465000C946500BC
:100030000C9465000C94DE000C9465000C94650033
:100040000C9465000C9465000C9465000C9465009C
:100050000C9465000C9465000C9465000C9465008C
:100060000C9465000C9465000C9465000C9465007C
:100070000C9465000C9465000C9465000C9465006C
:100080000C9465000C9465000C94650011241FBE4F
:10009000CFEFD0E4DEBFCDBF11E0A0E0B1E0E8E4F7
:1000A000F6E000E00BBF02C007900D92A231B1074D
:1000B000D9F721E0A2E1B1E001C01D92AA31B20757
:1000C000E1F70E94DE020C9414030C940000CF931D
:1000D000DF9300D00F92CDB7DEB789837B836A832D
:1000E00089818A3031F48A819B81BC018DE00E9434
:1000F000670080EC90E0FC018081882F90E08072A6
:100100009927892BB1F386EC90E02981FC012083AB
:1001100080E090E00F900F900F90DF91CF910895C5
:10012000CF93DF93CDB7DEB781E890E02BE0FC0101
:10013000208388E890E02DE730E0FC0131832083C4
:100140008FE690E022E0FC01208384E890E0FC014F
:100150001182108280910E0190910F01A0911001E7
:10016000B09111018093140190931501A093160191
:10017000B09317018FE590E0FC0120818FE590E0BE
:100180002068FC0120830000DF91CF910895CF9378
:10019000DF93CDB7DEB781E890E0FC01108200006C
:1001A000DF91CF910895CF93DF93CDB7DEB781E094
:1001B000809312010000DF91CF9108951F920F925A
:1001C0000FB60F9211240BB60F922F933F934F93BC
:1001D0005F936F937F938F939F93AF93BF93EF93AF
:1001E000FF93CF93DF93CDB7DEB780911401909149
:1001F0001501A0911601B09117010197A109B1094C
:100200008093140190931501A0931601B0931701E8
:100210008091140190911501A0911601B0911701E0
:10022000892B8A2B8B2B91F40E94D30080910E0195
:1002300090910F01A0911001B091110180931401D0
:1002400090931501A0931601B09317010000DF9160
:10025000CF91FF91EF91BF91AF919F918F917F913E
:100260006F915F914F913F912F910F900BBE0F9027
:100270000FBE0F901F901895CF93DF9300D000D042
:10028000CDB7DEB769837A838B839C8389819A811A
:10029000AB81BC8180930E0190930F01A09310015C
:1002A000B093110180910E0190910F01A091100166
:1002B000B09111018093140190931501A093160140
:1002C000B093170100000F900F900F900F90DF91E7
:1002D000CF910895CF93DF93CDB7DEB7809118010A
:1002E00090911901CC01A0E0B0E087309105A10503
:1002F000B10508F013C18A5E9C4FFC010C940B03FE
:1003000081E090E0909319018093180185E290E0DC
:1003100027E0FC01208309C180E290E0FC0180819C
:10032000882F90E08095909583709927039739F4F2
:1003300086E090E09093190180931801F6C080E266
:1003400090E0FC018081882F90E0809590958370EB
:100350009927019739F482E090E0909319018093F6
:100360001801E3C080E290E0FC018081882F90E0DA
:100370008095909583709927029739F484E090E0F6
:100380009093190180931801D0C081E090E0909380
:10039000190180931801C9C080E290E0FC018081BE
:1003A000882F90E08095909583709927019731F47C
:1003B000809113018F5F809313013EC080E290E033
:1003C000FC018081882F90E080959095837099271B
:1003D000029749F484E090E090931901809318010A
:1003E0001092130129C080E290E0FC018081882FE7
:1003F00090E08095909583709927039749F486E063
:1004000090E090931901809318011092130114C089
:1004100080E290E0FC018081882F90E080959095AB
:1004200083709927892B41F481E090E09093190122
:100430008093180110921301809113018A3009F002
:1004400071C082E090E0909319018093180110929E
:10045000130168C080E290E0FC018081882F90E069
:100460008095909583709927029731F480911301BC
:100470008F5F809313013EC080E290E0FC01808199
:10048000882F90E08095909583709927019749F483
:1004900082E090E09093190180931801109213016B
:1004A00029C080E290E0FC018081882F90E0809557
:1004B000909583709927039749F486E090E0909394
:1004C0001901809318011092130114C080E290E08A
:1004D000FC018081882F90E080959095837099270A
:1004E000892B41F481E090E09093190180931801E9
:1004F00010921301809113018A30B1F484E090E0EE
:100500009093190180931801109213010DC081E09E
:1005100090E0909319018093180107C0000005C076
:10052000000003C0000001C00000809118019091FC
:100530001901CC01A0E0B0E087309105A105B1051B
:10054000B0F5835E9C4FFC010C940B0385E290E0B8
:10055000FC018081893048F485E290E0FC01208133
:1005600085E290E02F5FFC01208383E090E0909390
:100570001901809318011EC085E290E0FC01808182
:10058000882349F085E290E0FC01208185E290E03B
:100590002150FC01208385E090E090931901809325
:1005A000180108C085E290E0FC01108203C0000041
:1005B00001C000000000DF91CF910895CF93DF9339
:1005C000CDB7DEB781E290E0FC01108282E290E0DC
:1005D0002FEFFC01208384E290E02FEFFC012083C9
:1005E00085E290E0FC01108264E670E080E090E03B
:1005F0000E943C010E94900085E290E027E0FC010F
:1006000020830E946A010000809112018823E1F397
:1006100010921201F6CFEE0FFF1F0024001C0BBE3C
:100620000790F691E02D0994F894FFCF80018C019A
:100630009002CC0190022A028702D902D902A602B6
:08064000D902BC02D902D2026A
:100648000000000200000000670000000000010038
:020658000000A0
:00000001FF
