:100000000C9446000C9465000C9465000C946500FB
:100010000C9465000C9465000C9465000C946500CC
:100020000C9465000C9465000C9465000C946500BC
:100030000C9465000C94DE000C9465000C94650033
:100040000C9465000C9465000C9465000C9465009C
:100050000C9465000C9465000C9465000C9465008C
:100060000C9465000C9465000C9465000C9465007C
:100070000C9465000C9465000C9465000C9465006C
:100080000C9465000C9465000C94650011241FBE4F
:10009000CFEFD0E4DEBFCDBF11E0A0E0B1E0EAEFEA
:1000A000F4E000E00BBF02C007900D92A631B1074B
:1000B000D9F721E0A6E1B1E001C01D92AF31B2074E
:1000C000E1F70E9453020C947B020C940000CF9342
:1000D000DF9300D00F92CDB7DEB789837B836A832D
:1000E00089818A3031F48A819B81BC018DE00E9434
:1000F000670080EC90E0FC018081882F90E08072A6
:100100009927892BB1F386EC90E02981FC012083AB
:1001100080E090E00F900F900F90DF91CF910895C5
:10012000CF93DF93CDB7DEB781E890E02BE0FC0101
:10013000208388E890E02DE730E0FC0131832083C4
:100140008FE690E022E0FC01208384E890E0FC014F
:10015000118210828091110190911201A0911301DE
:10016000B09114018093190190931A01A0931B017F
:10017000B0931C018FE590E0FC0120818FE590E0B9
:100180002068FC0120830000DF91CF910895CF9378
:10019000DF93CDB7DEB781E890E0FC01108200006C
:1001A000DF91CF910895CF93DF93CDB7DEB781E094
:1001B000809318010000DF91CF9108951F920F9254
:1001C0000FB60F9211240BB60F922F933F934F93BC
:1001D0005F936F937F938F939F93AF93BF93EF93AF
:1001E000FF93CF93DF93CDB7DEB780911901909144
:1001F0001A01A0911B01B0911C010197A109B1093D
:100200008093190190931A01A0931B01B0931C01D4
:100210008091190190911A01A0911B01B0911C01CC
:10022000892B8A2B8B2B91F40E94D3008091110192
:1002300090911201A0911301B091140180931901C2
:1002400090931A01A0931B01B0931C010000DF9151
:10025000CF91FF91EF91BF91AF919F918F917F913E
:100260006F915F914F913F912F910F900BBE0F9027
:100270000FBE0F901F901895CF93DF9300D000D042
:10028000CDB7DEB769837A838B839C8389819A811A
:10029000AB81BC818093110190931201A093130153
:1002A000B09314018091110190911201A09113015A
:1002B000B09114018093190190931A01A0931B012E
:1002C000B0931C0100000F900F900F900F90DF91E2
:1002D000CF910895CF93DF93CDB7DEB780911D0105
:1002E00090911E018430910509F459C08530910523
:1002F00008F06DC083309105D1F18430910508F08C
:1003000066C082309105D9F08330910508F05FC056
:10031000009719F0019741F05AC081E090E0909366
:100320001E0180931D0154C01092160110921701F6
:1003300082E090E090931E0180931D0149C080E20D
:1003400090E0FC018081882F90E081709927892BB3
:1003500039F483E090E090931E0180931D0138C032
:1003600082E090E090931E0180931D0131C080E2F5
:1003700090E0FC018081882F90E081709927892B83
:1003800039F483E090E090931E0180931D0120C01A
:1003900084E090E090931E0180931D0119C080E2DB
:1003A00090E0FC018081882F90E081709927892B53
:1003B00039F084E090E090931E0180931D0108C005
:1003C00081E090E090931E0180931D0101C0000028
:1003D00080911D0190911E018430910509F456C051
:1003E0008530910508F054C08330910509F452C05E
:1003F0008430910508F04CC08230910589F083303B
:10040000910508F045C0009709F446C0019709F02E
:100410003FC085E290E020910E01FC0120833FC0A7
:1004200080911601282F30E085E290E0225F3E4F58
:10043000F9012081FC01208380911701882389F430
:1004400080911601823068F4809116018F5F80934D
:100450001601809116018230C1F481E0809317016A
:1004600014C0809117018823C9F080911601882358
:10047000A9F0809116018150809316018091160198
:10048000882361F41092170109C008C0000007C05A
:10049000000005C0000003C0000001C00000000013
:1004A000DF91CF910895CF93DF93CDB7DEB781E28F
:1004B00090E0FC01108282E290E02FEFFC012083AB
:1004C00084E290E02FEFFC01208385E290E0FC01C4
:1004D00010826CE271E080E090E00E943C010E949A
:1004E00090000E946A010000809118018823E1F3C6
:0A04F00010921801F6CFF894FFCF28
:1004FA000000000200000000670000000000010286
:06050A00040100000000E6
:00000001FF
